{"abi":[{"type":"constructor","inputs":[],"stateMutability":"nonpayable"},{"type":"function","name":"approve","inputs":[{"name":"to","type":"address","internalType":"address"},{"name":"tokenId","type":"uint256","internalType":"uint256"}],"outputs":[],"stateMutability":"nonpayable"},{"type":"function","name":"balanceOf","inputs":[{"name":"owner","type":"address","internalType":"address"}],"outputs":[{"name":"","type":"uint256","internalType":"uint256"}],"stateMutability":"view"},{"type":"function","name":"getApproved","inputs":[{"name":"tokenId","type":"uint256","internalType":"uint256"}],"outputs":[{"name":"","type":"address","internalType":"address"}],"stateMutability":"view"},{"type":"function","name":"getCurrentOwner","inputs":[{"name":"nfcTokenId","type":"uint256","internalType":"uint256"}],"outputs":[{"name":"buyerName","type":"string","internalType":"string"},{"name":"purchasePrice","type":"uint256","internalType":"uint256"},{"name":"date","type":"uint256","internalType":"uint256"}],"stateMutability":"view"},{"type":"function","name":"getFullHistory","inputs":[{"name":"nfcTokenId","type":"uint256","internalType":"uint256"}],"outputs":[{"name":"","type":"tuple[]","internalType":"struct NFCBrandRegistry.SaleInfo[]","components":[{"name":"buyerName","type":"string","internalType":"string"},{"name":"salePrice","type":"uint256","internalType":"uint256"},{"name":"date","type":"uint256","internalType":"uint256"}]}],"stateMutability":"view"},{"type":"function","name":"isApprovedForAll","inputs":[{"name":"owner","type":"address","internalType":"address"},{"name":"operator","type":"address","internalType":"address"}],"outputs":[{"name":"","type":"bool","internalType":"bool"}],"stateMutability":"view"},{"type":"function","name":"name","inputs":[],"outputs":[{"name":"","type":"string","internalType":"string"}],"stateMutability":"view"},{"type":"function","name":"objectNames","inputs":[{"name":"","type":"uint256","internalType":"uint256"}],"outputs":[{"name":"","type":"string","internalType":"string"}],"stateMutability":"view"},{"type":"function","name":"owner","inputs":[],"outputs":[{"name":"","type":"address","internalType":"address"}],"stateMutability":"view"},{"type":"function","name":"ownerOf","inputs":[{"name":"tokenId","type":"uint256","internalType":"uint256"}],"outputs":[{"name":"","type":"address","internalType":"address"}],"stateMutability":"view"},{"type":"function","name":"registerInitialPurchase","inputs":[{"name":"clientWallet","type":"address","internalType":"address"},{"name":"nfcTokenId","type":"uint256","internalType":"uint256"},{"name":"_buyerName","type":"string","internalType":"string"},{"name":"_objectName","type":"string","internalType":"string"},{"name":"_salePrice","type":"uint256","internalType":"uint256"}],"outputs":[],"stateMutability":"nonpayable"},{"type":"function","name":"registerResale","inputs":[{"name":"newClientWallet","type":"address","internalType":"address"},{"name":"nfcTokenId","type":"uint256","internalType":"uint256"},{"name":"_newBuyerName","type":"string","internalType":"string"},{"name":"_resalePrice","type":"uint256","internalType":"uint256"}],"outputs":[],"stateMutability":"nonpayable"},{"type":"function","name":"renounceOwnership","inputs":[],"outputs":[],"stateMutability":"nonpayable"},{"type":"function","name":"safeTransferFrom","inputs":[{"name":"from","type":"address","internalType":"address"},{"name":"to","type":"address","internalType":"address"},{"name":"tokenId","type":"uint256","internalType":"uint256"}],"outputs":[],"stateMutability":"nonpayable"},{"type":"function","name":"safeTransferFrom","inputs":[{"name":"from","type":"address","internalType":"address"},{"name":"to","type":"address","internalType":"address"},{"name":"tokenId","type":"uint256","internalType":"uint256"},{"name":"data","type":"bytes","internalType":"bytes"}],"outputs":[],"stateMutability":"nonpayable"},{"type":"function","name":"setApprovalForAll","inputs":[{"name":"operator","type":"address","internalType":"address"},{"name":"approved","type":"bool","internalType":"bool"}],"outputs":[],"stateMutability":"nonpayable"},{"type":"function","name":"supportsInterface","inputs":[{"name":"interfaceId","type":"bytes4","internalType":"bytes4"}],"outputs":[{"name":"","type":"bool","internalType":"bool"}],"stateMutability":"view"},{"type":"function","name":"symbol","inputs":[],"outputs":[{"name":"","type":"string","internalType":"string"}],"stateMutability":"view"},{"type":"function","name":"tokenURI","inputs":[{"name":"tokenId","type":"uint256","internalType":"uint256"}],"outputs":[{"name":"","type":"string","internalType":"string"}],"stateMutability":"view"},{"type":"function","name":"transferFrom","inputs":[{"name":"from","type":"address","internalType":"address"},{"name":"to","type":"address","internalType":"address"},{"name":"tokenId","type":"uint256","internalType":"uint256"}],"outputs":[],"stateMutability":"nonpayable"},{"type":"function","name":"transferOwnership","inputs":[{"name":"newOwner","type":"address","internalType":"address"}],"outputs":[],"stateMutability":"nonpayable"},{"type":"event","name":"Approval","inputs":[{"name":"owner","type":"address","indexed":true,"internalType":"address"},{"name":"approved","type":"address","indexed":true,"internalType":"address"},{"name":"tokenId","type":"uint256","indexed":true,"internalType":"uint256"}],"anonymous":false},{"type":"event","name":"ApprovalForAll","inputs":[{"name":"owner","type":"address","indexed":true,"internalType":"address"},{"name":"operator","type":"address","indexed":true,"internalType":"address"},{"name":"approved","type":"bool","indexed":false,"internalType":"bool"}],"anonymous":false},{"type":"event","name":"ItemSold","inputs":[{"name":"tokenId","type":"uint256","indexed":true,"internalType":"uint256"},{"name":"toWallet","type":"address","indexed":false,"internalType":"address"},{"name":"buyerName","type":"string","indexed":false,"internalType":"string"},{"name":"price","type":"uint256","indexed":false,"internalType":"uint256"},{"name":"isResale","type":"bool","indexed":false,"internalType":"bool"}],"anonymous":false},{"type":"event","name":"OwnershipTransferred","inputs":[{"name":"previousOwner","type":"address","indexed":true,"internalType":"address"},{"name":"newOwner","type":"address","indexed":true,"internalType":"address"}],"anonymous":false},{"type":"event","name":"Transfer","inputs":[{"name":"from","type":"address","indexed":true,"internalType":"address"},{"name":"to","type":"address","indexed":true,"internalType":"address"},{"name":"tokenId","type":"uint256","indexed":true,"internalType":"uint256"}],"anonymous":false},{"type":"error","name":"ERC721IncorrectOwner","inputs":[{"name":"sender","type":"address","internalType":"address"},{"name":"tokenId","type":"uint256","internalType":"uint256"},{"name":"owner","type":"address","internalType":"address"}]},{"type":"error","name":"ERC721InsufficientApproval","inputs":[{"name":"operator","type":"address","internalType":"address"},{"name":"tokenId","type":"uint256","internalType":"uint256"}]},{"type":"error","name":"ERC721InvalidApprover","inputs":[{"name":"approver","type":"address","internalType":"address"}]},{"type":"error","name":"ERC721InvalidOperator","inputs":[{"name":"operator","type":"address","internalType":"address"}]},{"type":"error","name":"ERC721InvalidOwner","inputs":[{"name":"owner","type":"address","internalType":"address"}]},{"type":"error","name":"ERC721InvalidReceiver","inputs":[{"name":"receiver","type":"address","internalType":"address"}]},{"type":"error","name":"ERC721InvalidSender","inputs":[{"name":"sender","type":"address","internalType":"address"}]},{"type":"error","name":"ERC721NonexistentToken","inputs":[{"name":"tokenId","type":"uint256","internalType":"uint256"}]},{"type":"error","name":"OwnableInvalidOwner","inputs":[{"name":"owner","type":"address","internalType":"address"}]},{"type":"error","name":"OwnableUnauthorizedAccount","inputs":[{"name":"account","type":"address","internalType":"address"}]}],"bytecode":{"object":"0x608060405234801562000010575f80fd5b5033604051806040016040528060128152602001714e4643204272616e6420526567697374727960701b81525060405180604001604052806004815260200163272321a160e11b815250815f90816200006a9190620001ab565b506001620000798282620001ab565b5050506001600160a01b038116620000aa57604051631e4fbdf760e01b81525f600482015260240160405180910390fd5b620000b581620000bc565b5062000277565b600680546001600160a01b038381166001600160a01b0319831681179093556040519116919082907f8be0079c531659141344cd1fd0a4f28419497f9722a3daafe3b4186f6b6457e0905f90a35050565b634e487b7160e01b5f52604160045260245ffd5b600181811c908216806200013657607f821691505b6020821081036200015557634e487b7160e01b5f52602260045260245ffd5b50919050565b601f821115620001a657805f5260205f20601f840160051c81016020851015620001825750805b601f840160051c820191505b81811015620001a3575f81556001016200018e565b50505b505050565b81516001600160401b03811115620001c757620001c76200010d565b620001df81620001d8845462000121565b846200015b565b602080601f83116001811462000215575f8415620001fd5750858301515b5f19600386901b1c1916600185901b1785556200026f565b5f85815260208120601f198616915b82811015620002455788860151825594840194600190910190840162000224565b50858210156200026357878501515f19600388901b60f8161c191681555b505060018460011b0185555b505050505050565b611a5280620002855f395ff3fe608060405234801561000f575f80fd5b5060043610610132575f3560e01c8063715018a6116100b457806395d89b411161007957806395d89b41146102a1578063a22cb465146102a9578063b88d4fde146102bc578063c87b56dd146102cf578063e985e9c5146102e2578063f2fde38b146102f5575f80fd5b8063715018a6146102335780637ace341b1461023b578063842dd3ea1461025d5780638724eb381461027d5780638da5cb5b14610290575f80fd5b806323b872dd116100fa57806323b872dd146101c657806342842e0e146101d95780635d9a3b02146101ec5780636352211e146101ff57806370a0823114610212575f80fd5b806301ffc9a71461013657806306fdde031461015e578063081812fc14610173578063095ea7b31461019e57806316c8c06f146101b3575b5f80fd5b61014961014436600461139b565b610308565b60405190151581526020015b60405180910390f35b610166610359565b6040516101559190611403565b610186610181366004611415565b6103e8565b6040516001600160a01b039091168152602001610155565b6101b16101ac366004611447565b61040f565b005b6101b16101c1366004611514565b61041e565b6101b16101d4366004611594565b61055a565b6101b16101e7366004611594565b6105e3565b6101b16101fa3660046115cd565b610602565b61018661020d366004611415565b6106e4565b610225610220366004611628565b6106ee565b604051908152602001610155565b6101b1610733565b61024e610249366004611415565b610746565b60405161015593929190611641565b61027061026b366004611415565b610891565b6040516101559190611665565b61016661028b366004611415565b6109cd565b6006546001600160a01b0316610186565b610166610a64565b6101b16102b73660046116e6565b610a73565b6101b16102ca36600461171f565b610a7e565b6101666102dd366004611415565b610a96565b6101496102f0366004611796565b610b07565b6101b1610303366004611628565b610b34565b5f6001600160e01b031982166380ac58cd60e01b148061033857506001600160e01b03198216635b5e139f60e01b145b8061035357506301ffc9a760e01b6001600160e01b03198316145b92915050565b60605f8054610367906117c7565b80601f0160208091040260200160405190810160405280929190818152602001828054610393906117c7565b80156103de5780601f106103b5576101008083540402835291602001916103de565b820191905f5260205f20905b8154815290600101906020018083116103c157829003601f168201915b5050505050905090565b5f6103f282610b71565b505f828152600460205260409020546001600160a01b0316610353565b61041a828233610ba9565b5050565b610426610bb6565b5f848152600260205260409020546001600160a01b03161561048f5760405162461bcd60e51b815260206004820152601c60248201527f4365204e464320612064656a612065746520656e72656769737472650000000060448201526064015b60405180910390fd5b6104998585610be3565b5f8481526007602052604090206104b08382611843565b505f8481526008602090815260408083208151606081018352878152808401869052429281019290925280546001810182559084529190922082516003909202019081906104fe9082611843565b5060208201518160010155604082015181600201555050837f59a560bde9f8974dbd243eb81dde7871ba6c03ea39498fbe3c32da6cb43f81098685845f60405161054b94939291906118ff565b60405180910390a25050505050565b6001600160a01b03821661058357604051633250574960e11b81525f6004820152602401610486565b5f61058f838333610bfc565b9050836001600160a01b0316816001600160a01b0316146105dd576040516364283d7b60e01b81526001600160a01b0380861660048301526024820184905282166044820152606401610486565b50505050565b6105fd83838360405180602001604052805f815250610a7e565b505050565b61060a610bb6565b5f838152600260205260409020546001600160a01b03168061063e5760405162461bcd60e51b81526004016104869061193a565b610649818686610cee565b5f8481526008602090815260408083208151606081018352878152808401879052429281019290925280546001810182559084529190922082516003909202019081906106969082611843565b5060208201518160010155604082015181600201555050837f59a560bde9f8974dbd243eb81dde7871ba6c03ea39498fbe3c32da6cb43f8109868585600160405161054b94939291906118ff565b5f61035382610b71565b5f6001600160a01b038216610718576040516322718ad960e21b81525f6004820152602401610486565b506001600160a01b03165f9081526003602052604090205490565b61073b610bb6565b6107445f610d9b565b565b60605f8080610769855f908152600260205260409020546001600160a01b031690565b6001600160a01b03160361078f5760405162461bcd60e51b81526004016104869061193a565b5f848152600860205260408120805491906107ab600184611964565b815481106107bb576107bb611983565b905f5260205f2090600302016040518060600160405290815f820180546107e1906117c7565b80601f016020809104026020016040519081016040528092919081815260200182805461080d906117c7565b80156108585780601f1061082f57610100808354040283529160200191610858565b820191905f5260205f20905b81548152906001019060200180831161083b57829003601f168201915b50505091835250506001820154602080830191909152600290920154604091820152825191830151920151909891975095509350505050565b5f818152600260205260409020546060906001600160a01b03166108c75760405162461bcd60e51b81526004016104869061193a565b5f82815260086020908152604080832080548251818502810185019093528083529193909284015b828210156109c2578382905f5260205f2090600302016040518060600160405290815f8201805461091f906117c7565b80601f016020809104026020016040519081016040528092919081815260200182805461094b906117c7565b80156109965780601f1061096d57610100808354040283529160200191610996565b820191905f5260205f20905b81548152906001019060200180831161097957829003601f168201915b5050505050815260200160018201548152602001600282015481525050815260200190600101906108ef565b505050509050919050565b60076020525f9081526040902080546109e5906117c7565b80601f0160208091040260200160405190810160405280929190818152602001828054610a11906117c7565b8015610a5c5780601f10610a3357610100808354040283529160200191610a5c565b820191905f5260205f20905b815481529060010190602001808311610a3f57829003601f168201915b505050505081565b606060018054610367906117c7565b61041a338383610dec565b610a8984848461055a565b6105dd3385858585610eb3565b6060610aa182610b71565b505f610ab760408051602081019091525f815290565b90505f815111610ad55760405180602001604052805f815250610b00565b80610adf84610fdb565b604051602001610af0929190611997565b6040516020818303038152906040525b9392505050565b6001600160a01b039182165f90815260056020908152604080832093909416825291909152205460ff1690565b610b3c610bb6565b6001600160a01b038116610b6557604051631e4fbdf760e01b81525f6004820152602401610486565b610b6e81610d9b565b50565b5f818152600260205260408120546001600160a01b03168061035357604051637e27328960e01b815260048101849052602401610486565b6105fd838383600161106b565b6006546001600160a01b031633146107445760405163118cdaa760e01b8152336004820152602401610486565b61041a828260405180602001604052805f81525061116f565b5f828152600260205260408120546001600160a01b0390811690831615610c2857610c28818486611186565b6001600160a01b03811615610c6257610c435f855f8061106b565b6001600160a01b0381165f90815260036020526040902080545f190190555b6001600160a01b03851615610c90576001600160a01b0385165f908152600360205260409020805460010190555b5f8481526002602052604080822080546001600160a01b0319166001600160a01b0389811691821790925591518793918516917fddf252ad1be2c89b69c2b068fc378daa952ba7f163c4a11628f55a4df523b3ef91a4949350505050565b6001600160a01b038216610d1757604051633250574960e11b81525f6004820152602401610486565b5f610d2383835f610bfc565b90506001600160a01b038116610d4f57604051637e27328960e01b815260048101839052602401610486565b836001600160a01b0316816001600160a01b0316146105dd576040516364283d7b60e01b81526001600160a01b0380861660048301526024820184905282166044820152606401610486565b600680546001600160a01b038381166001600160a01b0319831681179093556040519116919082907f8be0079c531659141344cd1fd0a4f28419497f9722a3daafe3b4186f6b6457e0905f90a35050565b6001600160a01b038316610e155760405163a9fbf51f60e01b81525f6004820152602401610486565b6001600160a01b038216610e4757604051630b61174360e31b81526001600160a01b0383166004820152602401610486565b6001600160a01b038381165f81815260056020908152604080832094871680845294825291829020805460ff191686151590811790915591519182527f17307eab39ab6107e8899845ad3d59bd9653f200f220920489ca2b5937696c31910160405180910390a3505050565b6001600160a01b0383163b15610fd457604051630a85bd0160e11b81526001600160a01b0384169063150b7a0290610ef59088908890879087906004016119c5565b6020604051808303815f875af1925050508015610f2f575060408051601f3d908101601f19168201909252610f2c91810190611a01565b60015b610f96573d808015610f5c576040519150601f19603f3d011682016040523d82523d5f602084013e610f61565b606091505b5080515f03610f8e57604051633250574960e11b81526001600160a01b0385166004820152602401610486565b805160208201fd5b6001600160e01b03198116630a85bd0160e11b14610fd257604051633250574960e11b81526001600160a01b0385166004820152602401610486565b505b5050505050565b60605f610fe7836111ea565b60010190505f8167ffffffffffffffff8111156110065761100661146f565b6040519080825280601f01601f191660200182016040528015611030576020820181803683370190505b5090508181016020015b5f19016f181899199a1a9b1b9c1cb0b131b232b360811b600a86061a8153600a850494508461103a57509392505050565b808061107f57506001600160a01b03821615155b15611140575f61108e84610b71565b90506001600160a01b038316158015906110ba5750826001600160a01b0316816001600160a01b031614155b80156110cd57506110cb8184610b07565b155b156110f65760405163a9fbf51f60e01b81526001600160a01b0384166004820152602401610486565b811561113e5783856001600160a01b0316826001600160a01b03167f8c5be1e5ebec7d5bd14f71427d1e84f3dd0314c0f7b2291e5b200ac8c7c3b92560405160405180910390a45b505b50505f90815260046020526040902080546001600160a01b0319166001600160a01b0392909216919091179055565b61117983836112c1565b6105fd335f858585610eb3565b611191838383611322565b6105fd576001600160a01b0383166111bf57604051637e27328960e01b815260048101829052602401610486565b60405163177e802f60e01b81526001600160a01b038316600482015260248101829052604401610486565b5f8072184f03e93ff9f4daa797ed6e38ed64bf6a1f0160401b83106112285772184f03e93ff9f4daa797ed6e38ed64bf6a1f0160401b830492506040015b6d04ee2d6d415b85acef81000000008310611254576d04ee2d6d415b85acef8100000000830492506020015b662386f26fc10000831061127257662386f26fc10000830492506010015b6305f5e100831061128a576305f5e100830492506008015b612710831061129e57612710830492506004015b606483106112b0576064830492506002015b600a83106103535760010192915050565b6001600160a01b0382166112ea57604051633250574960e11b81525f6004820152602401610486565b5f6112f683835f610bfc565b90506001600160a01b038116156105fd576040516339e3563760e11b81525f6004820152602401610486565b5f6001600160a01b0383161580159061137e5750826001600160a01b0316846001600160a01b0316148061135b575061135b8484610b07565b8061137e57505f828152600460205260409020546001600160a01b038481169116145b949350505050565b6001600160e01b031981168114610b6e575f80fd5b5f602082840312156113ab575f80fd5b8135610b0081611386565b5f5b838110156113d05781810151838201526020016113b8565b50505f910152565b5f81518084526113ef8160208601602086016113b6565b601f01601f19169290920160200192915050565b602081525f610b0060208301846113d8565b5f60208284031215611425575f80fd5b5035919050565b80356001600160a01b0381168114611442575f80fd5b919050565b5f8060408385031215611458575f80fd5b6114618361142c565b946020939093013593505050565b634e487b7160e01b5f52604160045260245ffd5b5f67ffffffffffffffff8084111561149d5761149d61146f565b604051601f8501601f19908116603f011681019082821181831017156114c5576114c561146f565b816040528093508581528686860111156114dd575f80fd5b858560208301375f602087830101525050509392505050565b5f82601f830112611505575f80fd5b610b0083833560208501611483565b5f805f805f60a08688031215611528575f80fd5b6115318661142c565b945060208601359350604086013567ffffffffffffffff80821115611554575f80fd5b61156089838a016114f6565b94506060880135915080821115611575575f80fd5b50611582888289016114f6565b95989497509295608001359392505050565b5f805f606084860312156115a6575f80fd5b6115af8461142c565b92506115bd6020850161142c565b9150604084013590509250925092565b5f805f80608085870312156115e0575f80fd5b6115e98561142c565b935060208501359250604085013567ffffffffffffffff81111561160b575f80fd5b611617878288016114f6565b949793965093946060013593505050565b5f60208284031215611638575f80fd5b610b008261142c565b606081525f61165360608301866113d8565b60208301949094525060400152919050565b5f60208083018184528085518083526040925060408601915060408160051b8701018488015f5b838110156116d857603f198984030185528151606081518186526116b2828701826113d8565b838b0151878c01529289015195890195909552509487019492509086019060010161168c565b509098975050505050505050565b5f80604083850312156116f7575f80fd5b6117008361142c565b915060208301358015158114611714575f80fd5b809150509250929050565b5f805f8060808587031215611732575f80fd5b61173b8561142c565b93506117496020860161142c565b925060408501359150606085013567ffffffffffffffff81111561176b575f80fd5b8501601f8101871361177b575f80fd5b61178a87823560208401611483565b91505092959194509250565b5f80604083850312156117a7575f80fd5b6117b08361142c565b91506117be6020840161142c565b90509250929050565b600181811c908216806117db57607f821691505b6020821081036117f957634e487b7160e01b5f52602260045260245ffd5b50919050565b601f8211156105fd57805f5260205f20601f840160051c810160208510156118245750805b601f840160051c820191505b81811015610fd4575f8155600101611830565b815167ffffffffffffffff81111561185d5761185d61146f565b6118718161186b84546117c7565b846117ff565b602080601f8311600181146118a4575f841561188d5750858301515b5f19600386901b1c1916600185901b178555610fd2565b5f85815260208120601f198616915b828110156118d2578886015182559484019460019091019084016118b3565b50858210156118ef57878501515f19600388901b60f8161c191681555b5050505050600190811b01905550565b6001600160a01b03851681526080602082018190525f90611922908301866113d8565b60408301949094525090151560609091015292915050565b60208082526010908201526f13d89a995d081a5b995e1a5cdd185b9d60821b604082015260600190565b8181038181111561035357634e487b7160e01b5f52601160045260245ffd5b634e487b7160e01b5f52603260045260245ffd5b5f83516119a88184602088016113b6565b8351908301906119bc8183602088016113b6565b01949350505050565b6001600160a01b03858116825284166020820152604081018390526080606082018190525f906119f7908301846113d8565b9695505050505050565b5f60208284031215611a11575f80fd5b8151610b008161138656fea2646970667358221220ff61aa36680be99f80abbf5f3f31fc02aeacec353ed41dfe7c4c88415122873b64736f6c63430008180033","linkReferences":{}},"methodIdentifiers":{"approve(address,uint256)":"095ea7b3","balanceOf(address)":"70a08231","getApproved(uint256)":"081812fc","getCurrentOwner(uint256)":"7ace341b","getFullHistory(uint256)":"842dd3ea","isApprovedForAll(address,address)":"e985e9c5","name()":"06fdde03","objectNames(uint256)":"8724eb38","owner()":"8da5cb5b","ownerOf(uint256)":"6352211e","registerInitialPurchase(address,uint256,string,string,uint256)":"16c8c06f","registerResale(address,uint256,string,uint256)":"5d9a3b02","renounceOwnership()":"715018a6","safeTransferFrom(address,address,uint256)":"42842e0e","safeTransferFrom(address,address,uint256,bytes)":"b88d4fde","setApprovalForAll(address,bool)":"a22cb465","supportsInterface(bytes4)":"01ffc9a7","symbol()":"95d89b41","tokenURI(uint256)":"c87b56dd","transferFrom(address,address,uint256)":"23b872dd","transferOwnership(address)":"f2fde38b"},"id":0}